:020000041004E6
:10000000000001205D510410214C0410294C041003
:1000100000000000000000000000000000000000E0
:10002000000000000000000000000000314C04103F
:1000300000000000000000003B4C0410454C041080
:10004000C1510410C1510410C1510410C151041018
:10005000000000000000000000000000C15104107A
:10006000C1510410C1510410C1510410C1510410F8
:10007000C1510410554C041000000000C15104107F
:10008000C1510410C1510410894C0410000000003B
:100090007B4C041000000000A54C04106D4C0410B3
:1000A000C1510410974C0410C1510410C1510410E7
:1000B000C15104100000000000000000000000001A
:1000C00010B5904216D98AB2030C090C0C4659435C
:1000D00080B25343444350431B191A041B0C10189D
:1000E000594180225203002312184B41520DD8026D
:1000F000104310BD4843802252031218520D10467F
:1001000010BDC0468B0707D0013A22D30B780131CE
:10011000037001308B07F7D1830730D0DB4219D051
:100120000138043A08D308C943701B0A43801B0CEA
:1001300003710430043AF6D2D20707D30B88437018
:1001400001D08A78C2701B0A8370704701D00B7887
:1001500043707047043A06D308C903801B0C4380E0
:100160000430043AF8D2D20705D30B88038005D0B7
:100170008B788370704701D00B780370704770B430
:10018000103A03D378C978C0103AFBD2530701D391
:1001900018C918C001D508C908C0D20704D30B88F4
:1001A000038002300231002A01D50B78037070BC45
:1001B0007047C046EFF31482EFF30981154880F3CE
:1001C0001488BFF36F8FF0B543464C4655465E46E4
:1001D0006746F8B4104CEFF30883636006B4BFF3CE
:1001E0004F8F30BFC046C0460B4C646884F308880C
:1001F00082B003BCF8BC9846A146AA46B346BC46AA
:10020000F0BC04BC80F3098881F31488BFF36F8FBE
:100210001047C04600000000040000200023C25C1C
:100220000133002AFBD1581E7047000002B471460A
:1002300049084900095C49008E4402BC7047C04629
:1002400003B47146490840004900095E49008E44E4
:1002500003BC7047002243088B4274D303098B42CE
:100260005FD3030A8B4244D3030B8B4228D3030C86
:100270008B420DD3FF22090212BA030C8B4202D328
:100280001212090265D0030B8B4219D300E0090A50
:10029000C30B8B4201D3CB03C01A5241830B8B4259
:1002A00001D38B03C01A5241430B8B4201D34B0342
:1002B000C01A5241030B8B4201D30B03C01A5241A7
:1002C000C30A8B4201D3CB02C01A5241830A8B422C
:1002D00001D38B02C01A5241430A8B4201D34B0215
:1002E000C01A5241030A8B4201D30B02C01A524179
:1002F000CDD2C3098B4201D3CB01C01A524183092D
:100300008B4201D38B01C01A524143098B4201D366
:100310004B01C01A524103098B4201D30B01C01A91
:100320005241C3088B4201D3CB00C01A524183080B
:100330008B4201D38B00C01A524143088B4201D338
:100340004B00C01A5241411A00D201465241104698
:100350007047FFE701B5002000F0F0F802BDC0468D
:100360000029F7D076E7704703460B437FD400227D
:1003700043088B4274D303098B425FD3030A8B4239
:1003800044D3030B8B4228D3030C8B420DD3FF22A3
:10039000090212BA030C8B4202D31212090265D071
:1003A000030B8B4219D300E0090AC30B8B4201D324
:1003B000CB03C01A5241830B8B4201D38B03C01A6B
:1003C0005241430B8B4201D34B03C01A5241030BE2
:1003D0008B4201D30B03C01A5241C30A8B4201D393
:1003E000CB02C01A5241830A8B4201D38B02C01A3E
:1003F0005241430A8B4201D34B02C01A5241030AB5
:100400008B4201D30B02C01A5241CDD2C3098B4299
:1004100001D3CB01C01A524183098B4201D38B0116
:10042000C01A524143098B4201D34B01C01A5241B9
:1004300003098B4201D30B01C01A5241C3088B42FE
:1004400001D3CB00C01A524183088B4201D38B00E9
:10045000C01A524143088B4201D34B00C01A52418B
:10046000411A00D201465241104670475DE0CA0F62
:1004700000D04942031000D34042534000229C4622
:1004800003098B422DD3030A8B4212D3FC2289012C
:1004900012BA030A8B420CD3890192118B4208D302
:1004A000890192118B4204D389013AD0921100E064
:1004B0008909C3098B4201D3CB01C01A5241830978
:1004C0008B4201D38B01C01A524143098B4201D3A5
:1004D0004B01C01A524103098B4201D30B01C01AD0
:1004E0005241C3088B4201D3CB00C01A524183084A
:1004F0008B4201D38B00C01A5241D9D243088B42A0
:1005000001D34B00C01A5241411A00D20146634642
:1005100052415B10104601D34042002B00D54942A6
:10052000704763465B1000D3404201B5002000F0E5
:1005300005F802BD0029F8D016E770477047C0469D
:100540009140030090409C46203A93401943524208
:100550006346D340194370478446100062468C4678
:100560001900634600E0C0461FB501F021FE0028D7
:1005700001D40021C8421FBD10B501F063FD404207
:10058000013010BD10B501F013FE002801DB002082
:1005900010BD012010BDC04610B501F009FE0028B5
:1005A00001DD002010BD012010BDC04610B501F0D6
:1005B0008FFD002801DC002010BD012010BDC046C9
:1005C00010B501F085FD002801DA002010BD0120E2
:1005D00010BDC046844608006146FFE71FB500F025
:1005E00041FD002801D40021C8421FBD10B500F014
:1005F000C9FC4042013010BD10B500F033FD0028A9
:1006000001DB002010BD012010BDC04610B500F078
:1006100029FD002801DD002010BD012010BDC046CD
:1006200010B500F0D7FC002801DC002010BD01202F
:1006300010BDC04610B500F0CDFC002801DA002046
:1006400010BD012010BDC0461C2101231B0498428F
:1006500001D3000C10391B0A984201D3000A083953
:100660001B09984201D30009043902A2105C40180A
:100670007047C046040302020101010100000000AE
:1006800000000000002B15D1002A13D1002906DB41
:1006900001DC002806D00020C043410802E0802190
:1006A0000906002007B4024801A14018029003BDCA
:1006B0008DFEFFFF03B4684601B5029800F020F9F3
:1006C000019B9E4602B00CBC7047C046002B11D166
:1006D000002A0FD1002900D1002802D00021C943EF
:1006E000080007B4024802A14018029003BDC046AA
:1006F0004DFEFFFF03B4684601B5029800F034F8E0
:10070000019B9E4602B00CBC7047C046F0B5CE4679
:100710009946030C9C46130447461B0C1D000E0013
:1007200061460404240C80B50700100C4B4365435C
:10073000414360432C0CC01824188C46A34203D9B3
:1007400080235B029846C444494679435643230CB0
:100750002D042D0C8919634424046019C918C0BCE8
:10076000B946B046F0BDC046F0B557464E46454680
:10077000DE46E0B504000D009246994683B08B42F8
:1007800030D82DD04946504602F078FD29000600A9
:10079000200002F073FD331A9846203B34D49B4668
:1007A00053465A46934042461F00534693401E000C
:1007B000AF423BD8AF4200D179E05B46A41BBD41BC
:1007C000002B00DA76E0002200230092019301233F
:1007D0005A4693400193012342469340009329E0F7
:1007E0008242CFD900220023009201930C9B002B60
:1007F00001D01C605D600098019903B0F0BCBB465D
:10080000B246A946A046F0BD42469B4620239B1A0D
:100810005246DA40414613004A468A401700424693
:100820001F43534693401E00AF42C3D9002200230A
:10083000009201934346002BD8D0FB0772081A435D
:1008400046467B080EE0AB4201D1A2420CD8A41A66
:100850009D41012024196D410021013E24184D4184
:10086000002E06D0AB42EED9013E24196D41002E78
:10087000F8D1009801995B4600196941002B24DBEF
:100880002B005A464646D3402A001C00F2405B46E5
:100890001500002B2ADB26009E4033002600474629
:1008A000BE403200801A9941009001919EE7A34218
:1008B000BCD882E74246202300219B1A00220091E7
:1008C00001920122DA40019285E7424620239B1AD9
:1008D0002A0046469A402300F340464613432A0026
:1008E0001C00F2405B461500002BD4DA2023424660
:1008F0002F009B1B97402600DE403B003343CDE793
:10090000F8B5CE46474680B59146984604000D009E
:1009100002F0C0FC07000E0002000B0048464146F2
:10092000FFF7F4FE241A8D41089B380031001C604B
:100930005D60C0BCB946B046F8BDC0464A02F8B5D5
:10094000530ACE4699464B00C90F47468846460093
:100950004502360E1B0E80B5C40F6F0A9209AD0911
:10096000F11A44454BD0002938DD002B00D174E04A
:10097000FF2E00D1BEE08023DB041A431B2900DCDC
:10098000FDE0013D6B0100D4AFE001256D42AD01FA
:10099000AF093800FFF758FE3B0005388340864218
:1009A00000DCD3E0B94D311A1D405A0700D19EE05A
:1009B0000F221340042B00D199E004356B0100D4C1
:1009C00095E0481CFE2951D1FF200023C0051843A3
:1009D000E4072043C0BCB946B046F8BD002949D061
:1009E000991B002E72D1002D00D133E14C1E01293C
:1009F00000D159E1FF2900D14CE121006CE0002930
:100A000000DC81E0002B55D1002A70D04B1E01295B
:100A100000D12BE1FF296DD01B2B50DC19002023C6
:100A20005B1A10009A40C840531E9A410243AD1809
:100A30008023DB041D4200D1ADE0711CFE2EC3D02B
:100A400001206A082840924D154005436A0700D0EE
:100A50008BE01D42B5D1EF0834E0002A47D04B1E91
:100A6000012966D0FF2945D0190087E7C0B2AB0144
:100A70005B0AABE7FE239C46701C030060461842ED
:100A800000D092E0002E00D0E7E0002D00D119E167
:100A9000002A17D08023AF1ADB041F4200D142E1A5
:100AA0004446551B00D187E001201D42DFD10021C3
:100AB000EF0807E0FF2E1DD01B2900DC94E0310079
:100AC0000535EF087B025B0AC8B27FE7FF2B00D138
:100AD000E0E08020C00405431B2900DC88E0551EAF
:100AE00044461E00690100D54FE731000435EF0888
:100AF000FF29E7D1002F00D166E78023DB033B43CA
:100B00005B02FF205B0A61E7002958D0991B002E89
:100B100000D089E0002D00D19DE04E1E012900D1BA
:100B2000A4E0FF2900D1B6E01B2E00DDB8E03100C3
:100B300081E0AA1A530100D4AFE09701BF09380041
:100B4000FFF782FD3B000538834001261D00811B15
:100B500020200131CD40411A8B40591E8B411D434D
:100B60002AD000216B0700D1F0E00F232B40042B8B
:100B700000D022E76B0100D523E7EF08A2E720238E
:100B80005B1A10009A40C840531E9A410243AD1AA6
:100B90006B0100D5FBE66B0700D1D5E00F233100D8
:100BA0002B40042B00D008E7A1E7AF1A7B014ED4FD
:100BB000002F00D0EDE600240020002306E7FE23EE
:100BC000711C0B4221D1002E00D081E0002D00D1FC
:100BD0009FE0002A00D1B2E0AB185A0100D4B0E087
:100BE0009B0101205B0AF1E68023DB041A4316E730
:100BF00020242800C840611A8D4029004C1EA141C4
:100C0000014344461E00551AC2E7FF2900D1DBE626
:100C1000AF187F087B0705D00F233D1D3B40042BF9
:100C200000D064E7FF084DE7FF2B34D01B2937DCE9
:100C30008020C004054328002026C840711A8D403A
:100C400029004D1EA94101431E008D18F0E64446BF
:100C5000571B9EE64446150049E7002D46D1002A61
:100C600066D180230024FF20DB03AFE6AA185301DE
:100C700013D5074F52081740530744D00F23134092
:100C8000042B40D002213D1D31E7C046FFFFFFFB92
:100C9000FFFFFF7D44464F462CE70121D70811E7AF
:100CA00005321900D7080DE7571B7B0137D5BF0167
:100CB000BF093800FFF7C8FC3B00053883404446B5
:100CC000013643E7002A00D175E744464F46F9E66E
:100CD000002DE0D08023DB03002A17D09F4200D2F2
:100CE0000BE7994500D308E74F4606E78023DB036F
:100CF000002A0BD09F4200D2FFE6994500D3FCE6C4
:100D000044464F46F9E60221FF08DBE6FF203B435D
:100D10005CE6002A00D14FE70021D708D2E644461E
:100D20000121FF08CEE6002F00D07BE7002443E737
:100D300080234A46DB034446FF20134346E6002156
:100D4000C0E60021DF08BDE63100D0E601206A01DF
:100D500000D58BE62A00DFE7F0B546464F46D6467B
:100D60004502C0B5C30F470098460E1C6D0A3F0EE2
:100D70005BD0FF2F21D08023ED00DB041D43002337
:100D800099469A467F3F74027300640A1B0EF60F61
:100D9000002B20D0FF2B43D080220020E400D2047F
:100DA00014437F3B4246FF1A4B4672400F2B00D93B
:100DB0009DE071499B00CB589F46002D5AD10823D6
:100DC0009946063B74029A467300FF27640A1B0E7D
:100DD000F60F002BDED1002C3BD1012342464946C1
:100DE000724019430E2918D86448890041588F462B
:100DF0005346022B00D1B8E0032B6ED042462C00A4
:100E0000012B40D100200024C0052043D20710430D
:100E1000E0BCBA46B146A846F0BDFF200024F3E787
:100E2000002C20D10223FF3FD8E7002D05D1042359
:100E30009946033B00279A46A5E72800FFF704FCE4
:100E40007627431F9D4000237F4299469A463F1ACA
:100E500099E72000FFF7F8FB431F9C4076235B4295
:100E60001B1A00209EE703234A461A43914603209B
:100E7000FC3397E70C239946093BFF279A4682E704
:100E800003282CD0320038007F30002847DD63076C
:100E900004D00F232340042B00D00434230103D5B6
:100EA0003800374B80301C40FE28B6DCA401640AB1
:100EB000C0B2A9E780240022FF20E403A4E7802336
:100EC000DB031D4201D01C420BD08024E4032C43E1
:100ED00064024246FF20640A96E746462C008023BF
:100EE000DB031C4364023200FF20640A8CE76D01BF
:100EF000600185422DD21B230024013F01262900D9
:100F000064006D00002901DB854201D32D1A3443B2
:100F1000013B002BF3D16B1E9D412C43B3E7012312
:100F20001B1A1B2B00DD6DE721009E37D940BC400A
:100F30000B00611E8C412343590704D00F21194037
:100F4000042900D00433590113D49B0100205C0A0A
:100F50005AE71A2301242D1AD0E7981E434258411C
:100F6000404232000024C0B24EE74246FF20002437
:100F70004AE70120002447E7087B0610487B06105B
:100F8000FFFFFFF770B542004E024C0045026D0AAC
:100F9000120EC30F760A240EC90FFF2A10D0FF2CA1
:100FA0000CD00120A2420AD1B54208D18B420FD009
:100FB000002A04D12800431E984100E0012070BDA2
:100FC0000120FF2CFBD13543F9D14B401800F6E747
:100FD0000020F4E730B5420044024D02C30F480040
:100FE000640A120E6D0A000EC90FFF2A18D0FF28DE
:100FF0000AD0002A1ED100280AD1002D29D0002CA9
:101000002DD14800013830BD002D25D1002A01D155
:10101000002CF6D08B4219D001205B421843F2E736
:10102000002C19D1FF28F7D1002D15D100208B42BB
:10103000F2D1E8E70028EFD08B42EDD18242EBDC21
:1010400004DBAC42E8D80020AC42DCD258000138C6
:10105000D9E7002CD7D0DFE702204042D3E78B420C
:10106000DAD1EEE730B5420044024D02C30F48002A
:10107000640A120E6D0A000EC90FFF2A17D0FF284E
:101080000AD0002A1BD100280AD1002D1DD0002C27
:101090002DD14800013811E0002D0ED1002A01D1D8
:1010A000002CF6D08B420CD15800013806E0002C01
:1010B00003D1FF2805D1002D15D0022030BD002816
:1010C00006D101205B421843F8E7002CF6D0F8E780
:1010D0008B42F6D18242F4DCE6DBAC42F1D8002050
:1010E000AC42EBD2E0E700208B42EAD1E6E78B424C
:1010F000E7D1F2E741024200C30F490A0020120E75
:101100007E2A03DD9D2A02DD094A98187047802057
:1011100000040143952A07DC9620821AD1404842F8
:10112000002BF3D10800F1E7963A9140F7E7C0466B
:10113000FFFFFF7F70B5002812D0C317C5185D40B0
:10114000C40F2800FFF780FA9E231B1A962B0FDC92
:10115000082838D0083885406D026D0AD8B202E000
:10116000002400200025C0052843E407204370BD6B
:10117000992B14DC421F95402A0015491140550750
:101180001CD00F252A40042A18D00431CA0849016E
:1011900015D59F235202181A550AC0B2E3E7020080
:1011A00029001B3291404A1E91410522121AD54056
:1011B0002A000A43064911405507E2D1CA085202E3
:1011C000550AD8B2CFE76D026D0A8E30CBE7C04624
:1011D000FFFFFFFBF0B54F464646D646C0B50D03B0
:1011E00082B0009201934E00C300CC0F690A450FF4
:1011F0009C46009A019B0D435F001903D80F009B8A
:10120000490A5B0F1943009B760D7F0DDA00F31B33
:10121000844258D0002B13DD002F00D088E0080056
:10122000104300D159E1581E012B00D1C2E2B14F49
:10123000BB4200D141E1382800DD6AE2030064E1ED
:10124000002B00D1B1E0BB1B002E00D0E1E16446D1
:101250002C4300D176E25C1E012B00D1E8E2A54EC2
:10126000B34200D1B7E2382C00DC6BE3541EA2423B
:10127000924152428D1AA0461E0004002A0268D4F0
:1012800043461F1D47459B415B42ED182B0200D48E
:101290009DE3984A0136964200D1EBE0964A7305E9
:1012A0002A405B0D5107FF0852020F43120B1B052A
:1012B0001343E40723433800190002B0E0BCBA46E8
:1012C000B146A846F0BD002B00DCD7E0002F00D0CF
:1012D0009AE00800104300D1FFE0581E012B00D116
:1012E00048E2844FBB4200D1E7E0382800DCB8E296
:1012F00080221204154200D149E31E00002315008C
:1013000098467C4B01369E4200D1B3E07A4B0121D6
:101310001D4043465A081940EF070A4317436D081A
:101320007B07B3D00F233B40042BAFD0B846A7E7D1
:101330007048864200D1C0E0382B00DCE2E0012397
:101340005B4263449C45804140422D1A98462B02E3
:1013500096D501235B429846684D2800FFF774F943
:101360000300083B20214046CA1AD04002004046F4
:101370009D4098402A438046B34200DA72E1981BB0
:1013800043460130091A45468B40C5405E1EB341B5
:1013900017008F402B431F43C2403B00150000261F
:1013A0001343BDD10027002281E7554F731C3B42F8
:1013B00000D01BE163460F002B431743002E00D0E3
:1013C000C4E1002B00D145E2002F00D107E16346C4
:1013D0009B1A9846C445B6416B1A76429B1B8026E1
:1013E0003604334200D1CBE26346D31A9A4292418B
:1013F0001F00491B52428A1A9C46174300D0EDE257
:1014000004000023002252E73A48864255D0382B88
:1014100000DD48E18020000401431F2B00DDE3E1F3
:101420002027F81A824608005746B8408146100027
:101430004F46D840074338005746BA40D940571E58
:10144000BA416D18104360448046E04580414042F7
:101450002D182B0200D554E743465B0700D1B9E2B3
:101460000F2342461340042B00D009E733004246C5
:10147000D20834E033000022002718E7002B00D107
:101480008FE0BB1B002E00D033E16046284300D123
:1014900040E2581E012B00D10AE2164EB34200D1A1
:1014A00085E2382800DC87E280252D04294200D11E
:1014B0009CE21E000023984623E763466E07D80887
:1014C0000643ED0837002F4311D0802212032A4330
:1014D00012033700074B120BE9E66246D2086E078B
:1014E0001643044AED089342ECD03700D6E0014B96
:1014F0000022DCE6FF070000FFFF7FFFFFFF7F0009
:10150000FE0700008020000401431F2B00DDB1E036
:101510002027F81A824608005746B8408146100036
:101520004F46D840074338005746BA40D940571E67
:10153000BA416D1A104363461B1A9C458041984678
:1015400040422D1A2B0287D56D026D0A002D00D066
:1015500003E74046FFF778F8030018331F2B00DC41
:1015600000E74246083882409E4200DD91E09B1B26
:10157000581C1F2800DCF8E117001F3BDF40202823
:1015800005D040231B1A9A40531E9A411743002F3F
:101590003CD000267B0700D0C4E63500B8463300B7
:1015A00065E7CB48731C034200D085E063462B43BC
:1015B000002E00D092E10F001743002B00D1D8E19C
:1015C000002F0CD06244624580416D1840422D18B6
:1015D0002B0200D5F2E1170094462F4316D0634644
:1015E0006F07D80807430023ED0857E063469B1AAE
:1015F0009846C445BF416B1A7F42DB1B1F0200D5D2
:10160000AEE047461D001F43A0D100240023002266
:101610004DE6B04CA74200D1DDE0382B00DD85E07F
:101620008024240425431F2B00DDECE02026F41A3F
:10163000A1462C004E46B4406646DE403443A046E8
:1016400066464C46A640DD40741EA6414446491BF2
:101650003443131B9A4292415242984604003E0082
:101660008D1A6FE7F61A03009B4D15405B0700D0FB
:10167000F6E6FBE618000F002038C740202B03D009
:101680004020C31A99400A43531E9A411000384320
:1016900051E79149F31A0A405707D5082A035B0519
:1016A000120B5B0D03E680231B041D4200D1BBE03F
:1016B0001D000023984624E68648834200D1DAE6DE
:1016C000624462458041691840420918C8075208BF
:1016D000104380464D08520705D00F221E000240DD
:1016E000042A00D0CCE542466F07D20817430D0903
:1016F000D4E77848874200D1D5E0382B00DCB2E04F
:1017000080252D04294200D14CE100233E0098465B
:10171000F7E50122524262449445804140422D1A2D
:1017200090461E002A0200D513E6A9E5531E9A42F0
:10173000924152428D1A984604003E002B0200D579
:1017400007E69DE504000D00D208C8E6002B00D096
:10175000E3E0002F3FD1802200245E4B1203A6E578
:101760006346D31A9A4292414D1B52429846040056
:10177000AD1AEBE662441600664580416A184042A5
:101780001218130200D49DE0534973080A40D10790
:10179000194357085B0700D1FEE00F230B40042BD1
:1017A00000D1F9E00B1D98468845AD416D420223FA
:1017B000ED195CE663469B1A9C4580416D1A4042D8
:1017C0002D1A98462B020DD443466F07DB081F43A2
:1017D000ED08012362E74E07D20804001643CD0846
:1017E00070E604000126AFE618000F002038C7405D
:1017F000202B03D04020C31A99400A43531E9A411C
:10180000100038431FE61C002E00203CE640202B31
:1018100005D04024E31A9D4063462B439C46644612
:10182000631E9C41344314E701236344984627E533
:101830006346D31A9A4292414D1B5242AD1A9846C2
:101840002B02CED443466F07DB081F43040001235D
:10185000ED0823E7002F00D1D7E604000D009446E1
:10186000BDE60300D9E58020000405431F2B6BDC97
:101870002020C01A804628004646B0406646DE401A
:101880000643B14660464646B040DD40461EB04184
:101890004E46491930438046904490459241524209
:1018A0003E005518D5E54E07D2081643CD0809E687
:1018B00063469E1896429241691852428A18130252
:1018C00000D561E75707F60801233743D508E5E659
:1018D000FE070000FF070000FFFF7FFF002BE2D0A4
:1018E0006346DE086B071E430B00ED08134300D16F
:1018F000E8E580231B031D4206D0C808184203D127
:101900000500D60849070E43730FF600F6085B077B
:101910001E43D7E50D00D208E1E56346DE086B07FC
:101920001E43ED08002F00D1CCE580231B031D4290
:10193000EAD0CF081F42E7D1D608490704003D008E
:101940000E43E1E723006EE618002E002038C64063
:10195000202B05D04020C31A9D4063462B439C4654
:101960006046431E9841304395E720210023091A21
:101970000EE50023002F00D1BAE50D00904676E574
:1019800047461F4300D140E61D00C44627E601221A
:10199000624490461E0073E4C9087F0702230F4388
:1019A00015097BE6531C98460D003E0068E4D608F6
:1019B0004B071E43CD0885E5030057E7114BD208BE
:1019C0002B405F0717435A02120B01236FE43300C9
:1019D000B8464CE54346DA08330080E532420AD087
:1019E000084B04001A40674601235BE4013290462D
:1019F0000D001E0044E4DB0857071F4304000023CA
:101A0000D5084BE6FFFF7FFFF0B5DE46454657465B
:101A10004E46E0B587B0009201930B031B0B9B462B
:101A2000CA0F4B00040080465B0D029200D1BFE05C
:101A30008F4A934238D05946420FC9000A43802149
:101A400009041143C20090468A4A894692469A4444
:101A5000002300240393009E019F3B031B0B7A008D
:101A600030009B46520DFD0F002A00D17FE0804BD5
:101A70009A426ED05946730FC9000B438021090466
:101A800019438B467B49F3008C46514662448A1ABF
:101A900092460021029E6E40F6B20F2C00D9F9E06A
:101AA000754AA400125997465A460243914600D0FF
:101AB000B6E09A460223904608240393CBE72E0013
:101AC00000210023002288461B051343F6073343F9
:101AD0004046190007B0F0BCBB46B246A946A04636
:101AE000F0BDCB464346029D0399022900D1FAE19D
:101AF000032900D1A1E00129E1D0604A5244904677
:101B00004446002C00DC00E25A0704D00F221A40A1
:101B1000042A00D07FE22E00DA085B46DB0106D5FE
:101B20005946574B802419408B46E4005444554B8A
:101B30009C4209DC5B465B07134398465B466405A1
:101B40005A02120B630DBFE7002100228846484B62
:101B5000BAE75B46009A13434B4A9446E244002B93
:101B600059D10222144300220221934692E75B4698
:101B7000009A134349D05B46002B00D1A4E158469C
:101B8000FEF762FD030002000B3B1D27009EFB1ABF
:101B900011005846DE4008398840330003439B4615
:101BA000009B8B40394952448A460021924471E798
:101BB0005B460343994621D05B46002B00D171E17F
:101BC0005846FEF741FD0B235B429C4602008444CD
:101BD00066461D239B1B260011005846DE4008392F
:101BE000884033000343994623008B409846284B96
:101BF00000249B1A9A46002303932CE7002398465F
:101C00009A4601330424039325E70122144300225A
:101C1000012193463EE7032303211C43330039E7A8
:101C20009A460323D9460C24039314E70023802209
:101C3000984600260E4B120346E7802259461203AF
:101C40000A43120398462E00094B120B3CE78022F0
:101C500049461203114202D059461142F0D0802267
:101C60004B4612031A431203029E014B120B2BE741
:101C7000FF07000001FCFFFF847B0610FF0300004C
:101C8000FFFFFFFEFE07000001F8FFFFF303000067
:101C90000DFCFFFFCB4500D2FAE000D1F5E00122B8
:101CA000524294460022444648469046E2445A46F0
:101CB0001F0E12021B020293130C994617433B049A
:101CC0001B0C49460093FEF74BFB009A0B04424362
:101CD000210C050019438A4207D9C919013D8F42D9
:101CE00003D88A4201D9851EC919881A4946FEF7C8
:101CF00037FB009A240442430904240C03000C43DC
:101D0000A24204D9E419013BA74200D8F7E00299A6
:101D1000A01A2D040C0C09041D43090C2A0C2B04D9
:101D2000AB460D001B0C5D43059163435143049486
:101D300062435B182C0CE318994203D980214902B5
:101D40008C466244190C2D041B042D0C8A185D1955
:101D5000904200D287E000D182E043465D1BA84557
:101D60009B41801A5B42C01AB14B534498461C00F9
:101D7000874200D10CE14946FEF7F2FA0200009BCF
:101D800003905A430B04290C19438A420AD90300D1
:101D9000C919013B03938F4204D88A4202D9831E9A
:101DA0000393C919881A4946FEF7DAFA0A001204A1
:101DB00094462A0465460099120C414303002A43C5
:101DC000914207D9D2190138974203D8914201D9DB
:101DD000981ED219039B521A1B0403430598190C31
:101DE00005008C461904090C4D438946614600954F
:101DF0006546484304994D43AC464D464D4329182A
:101E0000009D2D0CA9464944884203D980204002F8
:101E10008146CC44009D080C2D0409042D0C60441F
:101E20004D1982420FD30BD001221343814A9245B0
:101E30006CDB1A1D9A429B415B42D2089B446CE6C4
:101E4000002D00D193E0591EBA188C46BA4200D238
:101E500085E0824200D2C7E000D1D5E00B00E3E785
:101E6000A84500D379E75B46591E029B9C46E04497
:101E70001C0098459B415B42DB19C018874238D251
:101E8000824278D875D08B4667E7434500D906E78C
:101E90004A46D40750084246520814434246D207E5
:101EA000904604E7FEF7D0FB15239C4684440200CD
:101EB000634620321C2B00DC8AE62300083883406E
:101EC00099460023984692E6FEF7BEFB0300020007
:101ED000153320321C2B00DC57E60099083881406E
:101EE00000238B465EE600212E0000228846524BDE
:101EF000EAE58742C7D14445C2D98B462DE7A242C5
:101F000000D804E7831EE41901E72E0001224146B0
:101F1000521A382A00DDD3E51F2A3FDC47481C004F
:101F20005044594683408140D440581E8341214348
:101F30000B435946D1400A00590709D00F211940D7
:101F4000042905D0191D99429B415B42D2180B0010
:101F5000110268D50021012300228846B4E50B0058
:101F6000824200D060E7029A954200D05CE73500DB
:101F7000C6E5454587D902235B429C46029BE34464
:101F80009C46E04498459B415B42DB19C018E4E65F
:101F9000002B36DD012300229B44BEE51F21404675
:101FA0004942091A5846C8400100202A04D0584620
:101FB000234A5244904003435A1E934107200B4347
:101FC000010000221940184209D00F2119400429AC
:101FD0001FD0181D98428941030049424907DB0878
:101FE0000B43984600236FE50299023B49008C465B
:101FF00002998C4589414942C9195218614602919A
:10200000AEE701235B4281E70299A942ECD3634624
:10201000A9E70021E3E71A1D9A429B415B422E008B
:10202000D2089B4479E551075202120BD7E7C0460C
:10203000FF03000002FCFFFFFF0700001E0400007A
:102040003E040000F0B55746DE464E464546E0B534
:102050000D000400E80F83460903D80F090B8246E0
:102060001A488C461F0369005E00490D3F0B760D30
:1020700081421AD0864211D00120B1420FD1BC4515
:102080000DD1A2420BD1D3451ED0002907D1614604
:1020900011430A00531E9A41100000E00120F0BCD9
:1020A000BB46B246A946A046F0BD01208E42F6D1FD
:1020B000614639430F0017432743F0D15B46524630
:1020C000981A431E9841EAE70020E8E7FF0700005E
:1020D000F0B557464E464546DE46E0B50D000E03C8
:1020E0004900490D8A46DF0FE90FBC4683B02F4FE8
:1020F000040080460191580019039146360B090BE4
:10210000400DBA451DD0B8420DD05746002F2AD1F8
:102110003443002824D10A4336D0002C41D16346F1
:102120005800013815E0114338D15346002B01D136
:102130002643F4D0019B634507D1019B5800013829
:1021400007E026432AD1504521D00120019B5F4260
:10215000384303B0F0BCBB46B246A946A046F0BD2A
:10216000002CDCD0E6E70028EFD0019B6345ECD1E2
:102170008245EADCE1DB8E42E7D8DED1C845E4D80F
:102180000020C845E5D2D8E7002CE2D0DDE71143B6
:1021900004D1019B6345D8D10020DAE702204042F8
:1021A000D7E7019B6345E6D0CFE7C046FF070000B5
:1021B000F0B557464E464546DE46E0B50D000E03E7
:1021C0004900490D8A46DF0FE90FBC4683B02E4F08
:1021D000040080460191580019039146360B090B03
:1021E000400DBA451ED0B8420DD05746002F27D11A
:1021F0003443002833D10A4334D0002C40D1634605
:102200005800013815E0114312D15346002B01D17B
:102210002643F4D0019B63451DD00120019B5F4202
:10222000384306E0264303D15045F6D111431CD074
:10223000022003B0F0BCBB46B246A946A046F0BDA2
:102240000028EAD0019B6345E7D18245E5DC02DB4B
:102250008E42E2D80ED0019B58000138E9E7002CED
:10226000CDD0D7E7002CE4D0D7E7019B0020634511
:10227000DFD0D2E7C845D0D80020C845D9D2EAE798
:10228000019B6345E4D0C8E7FF070000F0B557465F
:102290004E464546DE46E0B51F000B031B0B1600FD
:1022A0009846CA0F4B000400924685B05B0D00D1E2
:1022B000C2E1CC4A934200D128E14146420FC90015
:1022C0000A43802109041143C2009146C64A884648
:1022D00093469B440023002501933C037A00FB0FA7
:1022E0003000240B520D009300D185E1BD4B9A4282
:1022F00000D160E1BC4B9C46624493440A2D00DD52
:1023000014E1730FE4001C4380231B042343F000FB
:102310005246009900264A409246022D11DD0122C4
:10232000AA40A6211400C9000C400A4200D0FDE0DA
:10233000902189000A4200D0D4E18821114200D0C6
:10234000EFE049464A460904140C090C020C0F0040
:1023500015000004000C654347430195B9462F0062
:102360000D0006005543AC464D4666432D0CB44463
:102370006544AE4205D93E0080277F02BC466644D4
:1023800001964F463F043F0C2E0C2D04ED1902958B
:102390001D0C1B041B0C00951D001F0065434F43C3
:1023A000AC46009D69436C433D0CA94661444944D9
:1023B0008C4503D980256D02AC4664443F040D0C66
:1023C0003F0C0904C919AC467518039545462E04FF
:1023D000360C2F0C35004543784380463800644462
:1023E000AC462D0CA9465043724342444A449045A2
:1023F00003D980256D02A8464044150CA8466546C1
:102400002D042D0CAC4635005D4312046244AC46ED
:102410007B43009D404498462B006E4365467B43BA
:1024200046442D0CAD191F000093A84504D9802304
:102430005B02984647440097039B019E98462B04F5
:102440004644984663468E4289411B041B0C434414
:10245000B61849421B195F1896429241BC46524237
:10246000804691468C458941A3429B41E044C1444A
:1024700049425B42914592410B43804589412D0C75
:10248000494252420A435B199B18009A02999446AA
:102490004A4663445B02D20D1A43904672020A43D5
:1024A000511E8A41F60D16434A4652021643B14662
:1024B000DB0154D44D4A5A44002A00DC18E13300B1
:1024C0005B0715D00F215B463140042910D04946E7
:1024D000081D484589418146494288444146C90111
:1024E00006D54146424A114080228846D2009A18B9
:1024F000404B9A4200DD2BE141464B464C07DB083E
:102500001C4352054B021B0B520D1AE0424602437C
:10251000914600D0E0E09B460223904608250193B7
:10252000DBE6009A9846924681460196019B022B73
:1025300000D10DE1032B35D0012B1BD1002200234C
:10254000002412051A435346DB071A4320001100EA
:1025500005B0F0BCBB46B246A946A046F0BD01227C
:102560007308324013434246D20713439946434609
:102570005B08984680225B46D2005A440133002A09
:1025800000DCB6E049464907A8D00F214846014083
:1025900004299CD1A2E70F2D00D1FDE0009BA046AD
:1025A0009A46B146802342461B0313431B034C4605
:1025B0000C4A1B0BC5E70B4933008C462343E3440D
:1025C000002B77D1022129430A29AFDC5046009C19
:1025D00060408246002D00D10EE10D000020022651
:1025E0009DE6C046FF07000001FCFFFFFF0300005F
:1025F000FFFFFFFEFE070000230033434BD0002CFB
:1026000000D1BBE02000FEF71FF8030002000B3BE7
:102610001D20C31A3000D8401100030030000839D3
:102620008C408840234359468A1A78498B46934404
:102630000A2D00DC6CE679E743460343994623D034
:102640004346002B00D187E04046FDF7FDFF0B23FA
:102650005B429C4602008444110040460839884091
:102660001D23804660461B1A2000D84003004046C8
:102670000343984623008B409946644B00259B1AE0
:102680009B460023019328E6002398469B4601338E
:102690000425019321E6012215430A2D00DD45E7BB
:1026A000524600994A409246022D00DC46E700203F
:1026B000012634E603231D430A2D00DD6BE7534654
:1026C000009A882153400122AA409A4603262300FB
:1026D000114200D135E624E79B46032381460C25B1
:1026E0000193FAE500239A468023494A1B0328E711
:1026F0005B460121891A382900DD1FE71F295ADDB1
:102700001F204042821A4046D040202908D0414A2A
:102710009446424663449A4013004A461A439146FF
:102720004A460721531E9A410C00024300231440DD
:10273000114209D008311140042960D0111D914285
:10274000A4410A0064426407D20814430022F8E658
:10275000002300242E4AF4E6FDF776FF15239C465D
:1027600084440200634620321C2B00DC74E7002303
:10277000994623000838834098467EE7FDF764FFBA
:1027800003000200153320321C2B00DC40E733002D
:1027900008388340002046E7802342461B031A4244
:1027A00000D1FFE61C4200D0FCE6009A234392468B
:1027B0003400174AC5E6184A404694464A466344E0
:1027C0009840CA4010434A469A40531E9A41434695
:1027D0000243CB40510709D00F211140042905D0F5
:1027E000111D9142924152429B180A00190208D5CC
:1027F000012200230024A4E600230024A1E60024F3
:10280000A2E75C075B021B0B9EE7C0460DFCFFFFC7
:10281000FF0700003E0400001E040000F0B54E4615
:102820004546DE465746E0B583B0009001910D0362
:102830004E000199760DCC0F690A009D6D0F0D4376
:10284000009900920193C8001903019BCB4A5B00D9
:102850005B0D9946019B8346DB0F98464B0A009916
:10286000490F1943009BDB009C469A46914500D1D5
:1028700073E0012347465F404B46B846F31ABC421B
:1028800016D0002B00DC9AE24F46002F00D082E0E9
:1028900067460F4300D13AE15F1E012B00D1A4E24D
:1028A000934200D12EE1382F00DD43E23B003EE1B0
:1028B000002B00DCD7E24F46002F00D0F8E067463F
:1028C0000F4300D123E15F1E012B00D157E2934259
:1028D00000D117E1382F00DC04E3802212041542F6
:1028E00000D1AAE31E0015000027A44B01369E422A
:1028F00000D103E10122A24B3A401D407908114367
:10290000EA070A436D08530709D00F231340042B2D
:1029100005D017003A1DBA42BF417F42ED192B0284
:1029200000D477E3954901368E4200D1E6E0944920
:1029300073050D405B0D6907D2086D020A432D0B2C
:102940001B052B43E40723431000190003B0F0BC20
:10295000BB46B246A946A046F0BD8A4BF218634674
:102960000B434CD0444550D0002A6CD0002E00D1EF
:102970007DE1634644464F07DA081743C8083A002A
:10298000024300D1CDE080252D0305432D033A00FD
:102990007A4B2D0BD4E7964200D1B3E0382B00DC04
:1029A000C2E0471EB842804140422D1A2B02B1D5E9
:1029B0000127754D7F422800FDF746FE0838202389
:1029C00039001A1A8540D14087402943B04200DAC5
:1029D00045E1801B01301B1A3D009F40C5407A1E17
:1029E00097410A009A402F433A43C14013000D001B
:1029F00000260B4300D086E700220025A0E74746CB
:102A000001235F40B8464445AED1002A00D1EFE033
:102A1000002E00D088E14B462A00024300D1A0E2FC
:102A20005A1E012B00D1B7E2544EB34200D17BE1D4
:102A3000382A00DC12E380252D04294200D112E35C
:102A40001E00002751E7514A731C134200D0F4E0E6
:102A500062462B000A430343002E00D074E1002B92
:102A600000D123E2002A00D1E0E06346C71AB84251
:102A7000924180266B1A52429B1A3604334200D18F
:102A8000C1E26346181A844592414D1B5242AD1A69
:102A90000124020043462A431C40002A00D1DBE007
:102AA000354200D1E9E2364B02001D40012342E7E6
:102AB000964227D0382B00DD11E180221204114309
:102AC0001F2B00DDA1E120220F00D21A9146974072
:102AD0006246DA401743B84662464F46BA40D9408C
:102AE000571EBA4147466D1817433F188742804129
:102AF00040422D182B0200D5F7E634E033000025C4
:102B000000221DE7C0086F070743E80837E7C7083A
:102B10006A071743194AE808934200D12FE73A00A1
:102B2000D8E0164B00250BE78022120411431F2B1F
:102B300000DDB7E020220F00D21A9146974062468E
:102B4000DA401743B84662464F46BA40D940571E4E
:102B5000BA4147466D1A1743C71BB84280414042ED
:102B60002D1A2B0216D47B0700D179E20F233B40AC
:102B7000042B00D0CEE63300FF08C9E7FF070000B2
:102B8000FFFF7FFF01F8FFFFFFFF7F00FE07000050
:102B9000444601266D026D0A002D00D00BE7380077
:102BA000FDF752FD030018301F2800DC07E739004D
:102BB000083B9940864200DD87E0831B581C1F2894
:102BC00000DC14E20A001F3BDA40202805D0402335
:102BD0001B1A99404B1E99410A43002A3CD00026FB
:102BE000530700D091E6170035003300FF088FE748
:102BF000CA4A731C13427AD12B000343002E00D023
:102C000092E162460A43002B00D1F4E1002A0DD084
:102C10006346C718874280416D1840422D182B0229
:102C200000D512E23A00BB462A4315D05B466A073C
:102C3000DF083A430023E8084CE06346C71AB8426D
:102C400092416B1A52429B1A1A0200D587E03A0051
:102C50001D001A43A0D100240023002570E6B04DCA
:102C6000361A0D407B0700D080E7330084E74B46DF
:102C70002A0002437ED05A1E012B00D11FE1A94C2D
:102C8000A34200D198E1382A00DC9CE16246571E3D
:102C9000BC45924152428D1A44461E002A0200D57C
:102CA00086E637E61A000F00203AD740B846202BB8
:102CB00005D04022D31A994063460B439A465746A3
:102CC0007B1E9F4143461F4346E7954A331A1140F6
:102CD0004A07C80805035B052D0B5B0D30E6802312
:102CE0001B041D4200D1FBE01D000027FDE58D4ABD
:102CF000934200D103E762468218824280416918FC
:102D000040420818C707520817434508520700D425
:102D1000AEE10F221E003A40042A00D0FAE5FF0877
:102D20006A073A430009D5E763464F07DA081743B5
:102D3000C80824E6471EB842804140422D1A1E00B2
:102D40002A0200D534E6E5E5002B00D00DE1002A8B
:102D500000D069E180250024724B2D03F0E5634625
:102D60001F1ABC459241012443464D1B5242AD1AE5
:102D70001C4011E7624644460D00D708C8E663468A
:102D8000C618864280416918404209180B0200D4D7
:102D90000CE1634B70081940CB0703434A08400716
:102DA00000D43BE10F201840042800D136E11F1D5C
:102DB0009F42AD416D420223AD18FF08A8E6002BEB
:102DC00000D140E64B469B1B002E00D150E7382B2C
:102DD0002EDD63465F1EBC45924152428D1A444629
:102DE0004E462B0200D5E3E594E56346C71AB84288
:102DF00080416D1A40422D1A2B0200D5C9E66A07A0
:102E0000FF0801233A43E80864E71A000F00203A5C
:102E1000D740B846202B05D04022D31A99406346AC
:102E20000B439A4657467B1E9F4143461F435CE631
:102E300080223C00120415431F2B26DC20222F0089
:102E4000D21A060090409740DE40421E9041DD407D
:102E500037430743491B6346DF1BBC45924152423F
:102E60004E468D1A7DE6002B00D1C1E64B469B1BDA
:102E7000002E00D1D0E5382B36DD80252D042942E7
:102E800000D1DDE04E4600272FE51A002E00203A43
:102E9000D640202B05D04022D31A9D402F00074357
:102EA000BB465F467B1E9F413743D4E7002A00D1D3
:102EB000D1E6012443460D00E3461C40B6E66346D6
:102EC0001F1ABC4592414D1B5242AD1A2B0200D530
:102ED0005EE66A07FF08444601233A43E808F9E63C
:102EE000471C17E53B00EBE58022120415431F2B1E
:102EF0006CDC20222F00D21A060090409740DE4062
:102F0000421E9041DD4037430743491967446745F6
:102F1000924152424E465518ECE5C046FE0700006D
:102F2000FFFF7FFFFF070000002B00D1FCE6C70872
:102F30006B071F436346E8080B4300D11FE580235E
:102F40001B03184207D0CA081A4204D16346100076
:102F5000DF0849070F437B0FFF00FF085B071F4394
:102F60000DE562460D00D708D2E5C7086B071F4381
:102F7000E808002A00D102E580231B031842EAD0AA
:102F8000CA081A42E7D163460124DF0843464907CD
:102F900010000F431C40DEE7604460459241691811
:102FA0005242891806000B0200D5F2E64A07F608DD
:102FB00001233243C8088DE66346DF084B074446C9
:102FC0001F43C808DBE44446130035E71A002E000F
:102FD000203AD640202B05D04022D31A9D402F0006
:102FE0000743BB465F467B1E9F4137438EE7202346
:102FF00000271B1AF5E40023002A00D192E567465A
:103000000D00FF0884E53A001A4300D123E61D00B5
:10301000BB460BE617003300FF0879E5DB085207D3
:103020001A430809022355E663460124DA08434699
:103030004F071743C8081C40A1E41E00471C69E461
:1030400067460D004E46013764E40F4BFF081D40F4
:103050006A076D0201233A432D0B71E4130046E722
:103060003300FF0854E567460D001E00013751E4A8
:103070006A07FF083A4300092CE6C0086A070243C2
:103080000023E80826E6C046FFFF7FFFF0B5C646EE
:103090001E03360BB0460D4E0C034D005F0000B50D
:1030A000240B6D0D7F0DB5420BD0084900208F42D7
:1030B00004D1464616433000431E984180BCB846B2
:1030C000F0BD04430120002CF8D1EEE7FF0700001B
:1030D0000B00020070B5164D0C0382B049000020B1
:1030E00000920193240B490DDE0FA94204DD114823
:1030F000814203DD104BF01802B070BD8020400308
:1031000020430E4C641A1F2C08DD0D4B5B1AD8406F
:1031100003005842002EEFD11800EDE7094B009A4A
:103120009C46030061448B40E2401343F1E7C046F4
:10313000FE0300001D040000FFFFFF7F33040000BA
:1031400013040000EDFBFFFF70B5002816D0C31775
:10315000C5185D40C40F2800FDF776FA104B1B1A06
:103160005B055B0D0A2814DC02002E001532964028
:103170000B22121AD5402D032D0B03E0002400234F
:10318000002500261B052B43E407234330001900CC
:1031900070BD0B3885402D0300262D0BF2E7C0468D
:1031A0001E04000010B5041E10D0FDF74DFA0E4BA2
:1031B0001B1A5B055B0D0A280FDC0B222100121A7B
:1031C000D14015300A038440120B01E00023002295
:1031D0001B0513432000190010BD22000B3882404C
:1031E00012030024120BF3E71E04000070B5420224
:1031F0004300C40FFE201B0E591C550A08420CD078
:10320000E02189008C466D07120B63441B051343B4
:10321000E40723432800190070BD002B14D1002DB2
:103220001BD02800FDF710FA0A281CDC0B232A000B
:103230001B1ADA40030015339D400E4B12031B1A74
:103240005B05120B5B0DE1E7002D09D0130B80220B
:1032500012031A436D07084BD8E700230022D5E775
:103260000022054BD2E703002A000B3B9A400025C1
:10327000E3E7C04689030000FF07000010B50029FE
:1032800003D1FDF7E1F9203002E00800FDF7DCF999
:1032900010BDC046F0B54546DE4657464E46E0B541
:1032A00083B0009201930D000099019A0400002D53
:1032B00061DB06002F00002A0CDB009C019DBD4253
:1032C0001AD90020002103B0F0BCBB46B246A94683
:1032D000A046F0BD00254C429541BD42F1D800D139
:1032E000AEE001235B4299460BE0009A019B00256A
:1032F00054429D41BD42E4D8BD4200D19CE0002330
:10330000994629002000FFF7B9FF804639003000B8
:10331000FFF7B4FF43461B1A9846203B00D580E0D8
:10332000210099409A460B002100404681400A0046
:10333000BB422DD82AD05146B61A9F41002900DA47
:103340009BE00021002001240090019151468C4017
:10335000019401244546AC4000944446002C1ED103
:10336000009801994B46002BADD003000C000021C2
:103370005842A141A7E700276642AF41002AB4DBCB
:10338000009C019DBD429CD8ABD159E0B142D2D93D
:1033900000200021444600900191002CE0D0DC0781
:1033A000A44661465408C4460C435D0814E0BD427F
:1033B00001D1B44212D832003B00121BAB410126AE
:1033C00092185B410027B6185F4101235B429B4680
:1033D000DC446346002B0AD0BD42E8D901235B429E
:1033E0009B46DC446346B6197F41002BF4D1009A1A
:1033F000019B514692197B41002925DB3C003D0091
:10340000CC404146CD40514600292DDB25008D4062
:1034100029004546AC402000121A8B4100920193CE
:103420009EE7424628009A462023210090409B1A9E
:10343000D94003000B4377E7B44200D941E75EE788
:10344000B44200D84DE73CE740462021091A380035
:103450008840340001004046C4403D000C434146D2
:10346000CD4051460029D1DA404620212600854032
:10347000091ACE4029003143CBE7414620240125DB
:10348000641A00200021E54000900191019560E759
:1034900080B582B000AF786000200DF050F807F0E2
:1034A00013FE031E01D001F071F907F07DFB07F058
:1034B00091FC09F0D9FF00200DF04BF80023180013
:1034C000BD4602B080BD80B500AF01235B4218004D
:1034D0000DF04EF8C046BD4680BD80B500AFC04679
:1034E000BD4680BD80B500AFC046BD4680BD000072
:1034F00080B500AF184B4021180002F0C4FA031E3B
:1035000025D1154B0821180002F0BDFA031E1ED16B
:1035100080235A009023DB051100180002F0B3FA53
:10352000031E14D180231A019023DB05110018001B
:1035300002F0A9FA031E0AD180231B02064A1900D1
:10354000100002F0A0FA031E01D1012300E00023C5
:103550001800BD4680BDC0460000104890B58BB035
:1035600000AF78600823FB18180014231A0000210C
:1035700020F0ACFFEFF31083FB61FB693B6272B696
:10358000C0462723FB1800221A7083E06C4B0122EF
:103590008021180002F094FAC046C046C046C046DA
:1035A0002623FB1800221A7011E026203B181A78F7
:1035B00008243B199200D3583A18127859003B1945
:1035C0009200D1503B181A783B1801321A7026230A
:1035D000FB181B78042BE8D9594B002280211800D6
:1035E00002F06EFAC046C046C046C046544B402169
:1035F000180002F048FA0300012B05D108217B18BE
:103600001B685A1C7B181A604D4B0821180002F0E9
:103610003AFA0300012B05D108217B185B685A1C7C
:103620007B185A6080235A009023DB051100180094
:1036300002F029FA0300012B05D108217B189B68B1
:103640005A1C7B189A6080231A019023DB05110015
:10365000180002F018FA0300012B05D108217B188D
:10366000DB685A1C7B18DA6080231B02344A19007D
:10367000100002F008FA0300012B05D108217B1885
:103680001B695A1C7B181A6127217B181A787B1832
:1036900001321A702723FB181B78172B00D875E707
:1036A000274B01228021180002F00AFAC046C046CA
:1036B000C046C046224B00228021180002F000FACA
:1036C0003B6A002B01D162B6C0462523FB180022BD
:1036D0001A702AE025217B181A7808203B189200DE
:1036E000D25880231B0413400CD07B181A783B1847
:1036F0009200D3587A181278FF21090619433B1813
:103700009200D15025203B181A780823FB1892000C
:10371000D1583B181B789B007A68D3180A001A60AE
:103720003B181A783B1801321A702523FB181B78B6
:10373000042BCFD9C046C046BD460BB090BDC04695
:103740000000104880B582B000AF7860FFF7D0FE6F
:10375000031E01D1002304E07B681800FFF7FEFE82
:1037600001231800BD4602B080BD000080B500AF47
:10377000074B28220021180020F0A8FE054B00224C
:103780001A70054B01221A70C046BD4680BDC04666
:10379000A8010020D0010020D1010020F0B58DB09B
:1037A00000AF02000F210823CB18DB191A700A00A2
:1037B0000823D318DB191B78002B04D10823D31856
:1037C000DB1901221A70624B1B78002B01D1FFF725
:1037D000CDFF082308229B1808229446BC4463446A
:1037E0001800FFF7AFFF031E01D10023ABE01F233A
:1037F00008229B1808229446BC44634400221A7095
:103800003AE01F260821731808229446BC446344FA
:103810001B78504ADB00D3181A685B680C007018DC
:10382000082179184118087808210D1908217918FC
:103830006918800041583960C917796021000C006F
:1038400070180821791841180D78386879681218AD
:103850004B414048E90041180A604B602100731851
:1038600008229446BC4463441A78731808218C4695
:10387000BC44634401321A701F2308215B180822DC
:103880009446BC4463441B78042BBAD9324B1B7852
:103890000133DAB2304B1A702F4B1B780F220820FD
:1038A0001218D21912789A424CD81E235B1808229B
:1038B0009446BC44634400221A7034E01E24082558
:1038C000631908229446BC4463441B78214ADB00F8
:1038D000D318186859680F2308229B18DB191B7826
:1038E000DBB2BB600023FB60BA68FB68FCF7CAFE72
:1038F00002000B0010001900631908229446BC4412
:1039000063441A780100154B9200D15063190822C4
:103910009446BC4463441A78631908218C46BC441D
:10392000634401321A701E2308229B180822944611
:10393000BC4463441B78042BC0D9054B00221A7089
:10394000012300E000231800BD460DB0F0BDC046C5
:10395000D1010020A8010020D00100209401002006
:1039600080B584B000AFF860B9607A603B60094B05
:10397000FA681A60074BBA685A60064B7A689A6010
:10398000044B3A68DA60034BBA691A61C046BD4617
:1039900004B080BDC8090020F0B58FB000AF7861D9
:1039A0000A000B210823CB18DB191A700A00082320
:1039B000D318DB191B78002B04D10823D318DB198B
:1039C00001221A700C2308229B1808229446BC443A
:1039D00063441800FFF7B6FE031E01D10023CEE0BA
:1039E000272308229B1808229446BC4463440022E3
:1039F0001A703AE027260821731808229446BC441E
:103A000063441B78604ADB00D3181A685B680C00BB
:103A1000701808217918411808780C210D1908210F
:103A200079186918800041583960C91779602100F8
:103A30000C0070180821791841180D7838687968D9
:103A400012184B415048E90041180A604B602100B0
:103A5000731808229446BC4463441A7873180821EA
:103A60008C46BC44634401321A70272308229B18F9
:103A700008229446BC4463441B78042BBAD9434BB8
:103A80001B780133DAB2414B1A70404B1B780B2282
:103A900008215218D21912789A4201D900236EE0F7
:103AA000262308229B1808229446BC446344002223
:103AB0001A7050E026240825631908229446BC4455
:103AC00063441B78304ADB00D318186859680B230D
:103AD00008229B18DB191B78DBB2BB600023FB605C
:103AE000BA68FB68FCF7CEFD02000B0013003B63D5
:103AF000631908229446BC4463441A78244B92000C
:103B0000D3583A6BD31A1800FDF714FB2E00631933
:103B100008229446BC4463441A781E4B9200D15844
:103B20002500A31908229446BC4463441B789B00DB
:103B30007A69D418FDF710F9031C2360AB19082229
:103B40009446BC4463441A78AB1908218C46BC44A3
:103B5000634401321A70262308229B1808229446D7
:103B6000BC4463441B78042BA4D9074B28220021B2
:103B7000180020F0ABFC054B00221A70012318003E
:103B8000BD460FB0F0BDC046D801002000020020A5
:103B900094010020C809002080B582B000AF786091
:103BA0007B681B691800BD4602B080BD80B584B03B
:103BB00000AF7860074B196D064B7A680A431A65A7
:103BC000044B1B6D7A681340FB60FB68C046BD4622
:103BD00004B080BD0000404880B584B000AF78607C
:103BE000074B196E064B7A680A431A66044B1B6E24
:103BF0007A681340FB60FB68C046BD4604B080BDD8
:103C00000000404880B582B000AF7860064B1B6E64
:103C10007A6813407A689A4201D1012300E00023B8
:103C20001800BD4602B080BD0000404880B582B09B
:103C300000AF7860044B196C034B7A680A431A642E
:103C4000C046BD4602B080BD0000404880B582B08D
:103C500000AF7860054B1A6C7B68D943034B0A4070
:103C60001A64C046BD4602B080BDC0460000404850
:103C700090B583B000AFFB1D00221A7052E0FB1D0F
:103C80001A782D4B9200D358C0210906181CFCF756
:103C9000C7FC031E11D0FB1D1A78274B9200D35886
:103CA0008021C905181CFCF7A7FC031E05D0FB1DCD
:103CB0001A78214B92000021D150FB1D1A781E4B1F
:103CC0009200D3580021181CFCF7A0FC031E06D05C
:103CD000FB1D1A78194B92000021D1501DE0FB1DED
:103CE0001A78154B9200D058FB1D1A78144B92008D
:103CF000D358191CFDF730F8031CFC218905181C4A
:103D0000FCF71CFE031C1A1CFB1D1C78101CFDF785
:103D1000F1F90100094BA200D150FB1D1A78FB1DDF
:103D200001321A70FB1D1B78042BA8D9C046C0466F
:103D3000BD4603B090BDC046A8030020BC030020D0
:103D4000C47B061080B582B000AF00237B60234B9C
:103D50001B68002B07DD214B1B681A00C823534347
:103D60007A68D3187B601D4B5B68002B07DD1B4B0B
:103D70005B681A00322353437A68D3187B60174B71
:103D80009B68002B07DD154B9B681A006423534387
:103D90007A68D3187B60114BDB68002B0ADD0F4B70
:103DA000DB681A0013009B009B189B001A007B68BD
:103DB0009B187B60094B1B69002B0ADD074B1B69B5
:103DC0001A0013009B009B185B001A007B689B186D
:103DD0007B607B681800BD4602B080BDBC0300203C
:103DE00080B582B000AF78607B68002B01DA0023D9
:103DF00006E07B68FF2B01DDFF2301E07B68DBB27F
:103E00001800BD4602B080BD80B582B000AF1A4B2D
:103E10001B681800FFF7E4FF03001A003B001A704C
:103E2000154B9B681800FFF7DBFF03001A003B00EF
:103E30005A70114B5B681800FFF7D2FF03001A009D
:103E40003B009A700C4BDB681800FFF7C9FF0300BA
:103E50001A003B00DA70084B1B691800FFF7C0FF1F
:103E600003001A003B001A713B0018000AF0C6FA62
:103E7000C046BD4602B080BDBC03002080B582B004
:103E800000AFFB1D00221A70F91D0C48002301220F
:103E900005F002FC031E0DD1FB1D1B783F2B07D044
:103EA000FB1D1B78682B03D0FB1D1B78482B01D111
:103EB00000F000F9C046BD4602B080BD600200209F
:103EC00080B584B000AF0AF0AFFA0300FB60FFF7E3
:103ED00039FF0300BB60FB68002B05D0BA68FB68A4
:103EE0009A4201D3012200E00022FB1D1A70144BFC
:103EF0001B78FA1D12789A421ED0FB1D1B78002BEE
:103F000009D05A2000F080FCFA68B9680D4B1800FF
:103F100020F038F908E0002000F076FCFA68B96873
:103F2000094B180020F02EF9084BFA1D12781A7070
:103F3000034BFA1D12781A70C046BD4604B080BD0E
:103F4000DC090020406A0610706A0610D0030020C9
:103F5000F0B5DE4657464E464546E0B5A7B018AF29
:103F6000FFF7F0FE03007B630AF05EFA03003B6399
:103F7000484B1B68FB62484B1B68181CFFF736F95F
:103F800038627962434B5B689A46434B5B68181C06
:103F9000FFF72CF9B861F9613E4B9B689B463E4B9D
:103FA0009B68181CFFF722F938617961394BDB688F
:103FB000BB62394BDB68181CFFF718F9B860F96071
:103FC000344B1B699846344B1B69181CFFF70EF9DC
:103FD00004000D007B6B64211800FCF73BF9030023
:103FE0007B607B6B64211800FCF7BAF90B009946E3
:103FF0003B6B64211800FCF72DF903001E003B6B9E
:1040000064211800FCF7ACF90B001900234B1B7856
:10401000DBB2002B01D0224B00E0224B224A234886
:104020001693159114964B4613937B681293109434
:10403000119543460E93BB68FC680C930D94BB6AC4
:104040000A933B697C69089309945B460693BB69B4
:10405000FC6904930594534602933B6A7C6A00937F
:104060000194FB6AB42120F007F9104B1800FCF70B
:10407000D5F803009AB20D490D480A2305F05EFAFF
:10408000C046BD460FB0F0BCBB46B246A946A046EE
:10409000F0BDC046BC030020A8030020D0030020D0
:1040A000A06A0610A86A0610B06A0610F402002082
:1040B0006002002080B5BAB000AF3A1D084B100076
:1040C0001900E4231A0020F073FA391D054864230F
:1040D000E32205F033FAC046BD463AB080BDC04683
:1040E0003C6B06106002002080B584B000AF7860A1
:1040F0007B68DAB20F217B181A7001235B427918B2
:104100000448012205F01AFA7B681800BD4604B085
:1041100080BDC04660020020B0B5C6B002AF01F05D
:1041200050F800F00BF900F040F900F0ABFA00F0A5
:104130005BFA00F0D1F900F0BBF900F067F900F08C
:1041400083F900F04FF9C0243A196D4B10001900A3
:104150003F231A0020F02CFA3B191800FCF75EF8F8
:1041600003009AB239196748322305F0E7F9664C23
:10417000664A67496748684B0093231CFFF7F0FBCA
:10418000FFF7F4FA654B0021180000F021FB002036
:1041900000F03AFB624B00221A70FFF78BFF642499
:1041A0003A19604B1000190059231A0020F000FA48
:1041B0003B191800FCF732F803009AB2391951483C
:1041C000322305F0BBF94C257B19574A13CA13C398
:1041D00013CA13C37B191800FCF720F803009AB226
:1041E00079194848322305F0A9F90020FFF750F962
:1041F00018243A194D4B1000190034231A0020F0EE
:10420000D7F93B191800FCF709F803009AB23919DD
:104210003C48322305F092F91023FF33FB180022AB
:104220001A70002384225200BA18136000237A1DEA
:10423000FF32136001F036F803007A1CFF3213607E
:10424000FFF71CFE1024FF343B191B78002B21D1F3
:104250001420FFF7A3FA031E4DD03B1901221A7058
:10426000334B882252009B18DB19324A13CA13C3FE
:1042700003CA03C31188198092789A703B00180012
:10428000FBF7CCFF03009AB239001E48322305F039
:1042900055F930E0284B05211800FFF77DFB031E80
:1042A00016D0FFF7E5FCFFF70BFE7B1CFF331A6807
:1042B0007B1DFF331B68D21AFA235B009A4207D397
:1042C0007B1CFF331B687A1DFF321360FFF79CFDD8
:1042D0007B1CFF331A68842149007B181B68D21AA3
:1042E000FA235B009A4206D37B1CFF331B687A18C3
:1042F0001360FFF72DFEFFF7E6F8FFF7E1FD99E702
:10430000206C061060020020CD3C864400C07B4437
:104310000090824400408344F6587E4424020020EA
:10432000D0030020606C0610BC6C0610D46C061024
:10433000F0FEFFFF086D0610A803002090B589B0BD
:1043400000AF08243B19180018231A00002120F0A0
:10435000BDF83B00180008231A00002120F0B6F831
:104360003B1903221A603B19802252025A603B1902
:104370001022DA603B19180004F07AF8031E01D00D
:1043800000F004FA3B0000221A603B0020225A6031
:104390003B000021180004F0BBF9031E01D000F01F
:1043A000F5F9C046BD4609B090BD80B586B000AFF6
:1043B0003B00180018231A00002120F087F83B006A
:1043C00002221A603B00802252015A613B00180011
:1043D00004F034FB031E01D000F0D8F9C046BD46FE
:1043E00006B080BD80B500AF064B074A1A60054B8A
:1043F000180001F082FB031E01D000F0C7F9C0468F
:10440000BD4680BD040200200000304880B582B067
:1044100000AF00237B600120FFF7F4FB031E08D1EF
:104420000120FFF703FC0120FFF710FC0120FFF73C
:10443000D3FBC023DB057B603B1D180001F076FE3B
:10444000C046BD4602B080BD80B582B000AF3B0023
:10445000180008231A00002120F038F80120FFF787
:10446000D1FB031E08D10120FFF7E0FB0120FFF77D
:10447000EDFB0120FFF7B0FBC0460C4B1800FFF727
:104480008BFB03000F2BF8D93B00A02252001A80AF
:104490003B0000229A703B0000225A603B0018004B
:1044A00002F078FBC046BD4602B080BD0018006037
:1044B00080B500AF064B074A1A60054B180004F0A0
:1044C00099FB031E01D000F061F9C046BD4680BDD6
:1044D000100200200000604880B590B000AF242397
:1044E000FB1818001C231A0000211FF0EFFF3B1DD2
:1044F000180020231A0000211FF0E8FF374B384A2C
:104500001A60364B3F225A60344B00229A60334B7C
:10451000344ADA60314B00221A61304B00225A6172
:104520002E4B00229A612D4B180004F092FB031EC3
:1045300001D000F02BF9294B180004F0CEFB031E2C
:1045400001D000F023F924217B1860221A607B1827
:1045500000225A607B1800229A607B180022DA60E1
:104560007B1800221A617B1800225A617B180022F6
:104570009A617918194B0022180004F09DFC031E63
:1045800001D000F003F93B1D00221A603B1D002200
:104590005A603B1D00229A603B1D0022DA603B1DE1
:1045A00000221A613B1D802292015A613B1D0022AC
:1045B0009A613B1D0022DA613A1D084B1100180078
:1045C00004F000FF031E01D000F0E0F8034B1800D8
:1045D00000F088FAC046BD4610B080BD240200201D
:1045E000006000401F4E000080B500AF234B244AFE
:1045F0001A60224BE12252025A60204B00229A603C
:104600001E4B0022DA601D4B00221A611B4B0C224C
:104610005A611A4B00229A61184B0022DA61174B3B
:1046200000221A62154B00225A62144B00229A6231
:10463000124B180004F02CFF031E01D000F0A6F866
:104640000E4B0021180005F0EBFC031E01D000F01A
:104650009DF80A4B0021180005F022FD031E01D031
:1046600000F094F8054B180005F0A0FC031E01D0E3
:1046700000F08CF8C046BD4680BDC04660020020F8
:104680000040004180B586B000AF3B1D18001423E8
:104690001A0000211FF01AFF0820FFF787FA0420F4
:1046A000FFF784FA364B00228021180001F008FA47
:1046B0003B1D344A1A603B1D00225A603B1D0022FC
:1046C0009A603B1D2E4A1900100001F037F83B1D7F
:1046D00004221A603B1D02225A603B1D01229A608F
:1046E0003B1D0022DA603B1D07221A613A1D902310
:1046F000DB051100180001F021F83B1D902212018A
:104700001A603B1D00225A603B1D00229A603A1D30
:104710009023DB051100180001F010F83B1D8022EA
:104720001A603B1D01225A603B1D00229A603B1D0E
:104730000022DA603B1D124A1900100000F0FEFF53
:10474000114B1900012001F0EFFA90231B01190011
:10475000002001F0E9FA0C4B1900012001F012FBD6
:1047600090231B011900002001F00CFB0421002004
:1047700001F0A0FA0BF0F7FEC046BD4606B080BDC2
:104780000000104848800000C880000080B592B04A
:1047900000AF0D4B1B68002B12D03A1D0B4B1000C5
:1047A000190043231A001FF003FF3B1D1800FBF7FD
:1047B00035FD03009AB2391D0348642304F0BEFEA0
:1047C00072B6C046C046FDE760020020206D0610AC
:1047D00080B582B000AF78603960094B7A681A60A2
:1047E000084B3A681A60064B1A68064B1B6819009A
:1047F000100004F0BFFAC046BD4602B080BDC046FE
:10480000D4030020D803002080B584B000AF02009C
:10481000FB1D1A70FB1D1B78B42B02D9FB1DB422A3
:104820001A70FB1D1A7813005B019B1A9B009B18E2
:104830001B01B4211800FBF70DFD0300F533FF3316
:10484000FB60134B1B68002B05D1124B1B681B68C8
:10485000FA685A6318E00E4B1B68042B05D10D4B08
:104860001B681A68FB6893630EE0094B1B68082BF2
:1048700005D1084B1B681A68FB68D36304E0054B3D
:104880001B681A68FB681364C046BD4604B080BD4F
:10489000D8030020D403002080B584B000AF786036
:1048A000074B196D064B7A680A431A65044B1B6D5A
:1048B0007A681340FB60FB68C046BD4604B080BD0B
:1048C0000000404880B584B000AF7860074B596D58
:1048D000064B7A680A435A65044B5B6D7A6813404D
:1048E000FB60FB68C046BD4604B080BD0000404888
:1048F00080B584B000AF7860074B996D064B7A683D
:104900000A439A65044B9B6D7A681340FB60FB6811
:10491000C046BD4604B080BD0000404880B584B0AC
:1049200000AF7860074B196E064B7A680A431A6627
:10493000044B1B6E7A681340FB60FB68C046BD46A3
:1049400004B080BD0000404880B582B000AF786000
:10495000064B1B6E7A6813407A689A4201D1012394
:1049600000E000231800BD4602B080BD00004048B2
:1049700080B582B000AF7860044B196C034B7A6845
:104980000A431A64C046BD4602B080BD00004048DC
:1049900080B582B000AF7860054B1A6C7B68D94354
:1049A000034B0A401A64C046BD4602B080BDC046F3
:1049B0000000404880B500AF80235B001800FFF77F
:1049C00081FFC046BD4680BD80B582B000AF786033
:1049D0007B681B68094A93420CD180235B02180054
:1049E000FFF75AFF002201210D2000F01BFD0D20D2
:1049F00000F02DFDC046BD4602B080BD000030482D
:104A000090B589B000AF786008243B1918001823CE
:104A10001A0000211FF05AFD7B681A68C023DB05CD
:104A20009A4235D13B1901221A603B1900221A61C2
:104A30003B19180004F002F8031E01D0FFF7A6FE90
:104A40000120FFF781FF031E08D10120FFF790FF2F
:104A50000120FFF79DFF0120FFF760FF0BF083FDB2
:104A600000220021122000F0DDFC122000F0EFFCFB
:104A700000220021192000F0D5FC192000F0E7FCED
:104A800000220021162000F0CDFC162000F0DFFCF3
:104A9000C046BD4609B090BD80B582B000AF786019
:104AA0007B681B68054A934204D18023DB0218000F
:104AB000FFF7F2FEC046BD4602B080BD0000604870
:104AC00080B582B000AF78607B681B68044A93426F
:104AD00002D10420FFF7F6FEC046BD4602B080BDFD
:104AE0000060004090B589B000AF78600C243B199D
:104AF000180014231A0000211FF0E8FC7B681B68D3
:104B0000164A934226D10420FFF7C6FE3B198022A5
:104B100092001A6021007B1802225A607B18002242
:104B20009A607B180022DA607B1806221A617A18D4
:104B30009023DB051100180000F000FE80239B008D
:104B40001900002001F0F0F880239B0019000020DC
:104B500001F018F9C046BD4609B090BD00600040A4
:104B600090B589B000AF78600C243B19180014236D
:104B70001A0000211FF0AAFC7B681B68264A93429A
:104B800046D18023DB001800FFF7B2FE0820FFF7B4
:104B900083FE0420FFF780FE3B1901221A603B19B7
:104BA00002225A603B1900229A603B190022DA6007
:104BB0003B1900221A613B19184A1900100000F035
:104BC000BDFD21007B1802221A607B1802225A6068
:104BD0007B1800229A607B180022DA607B18022280
:104BE0001A617A189023DB051100180000F0A6FD69
:104BF0000121012001F098F80221002001F094F831
:104C00000121012001F0BEF80221002001F0BAF8D4
:104C1000C046BD4609B090BD0040004100001048AC
:104C200080B500AFC046FDE780B500AFC046FDE7E8
:104C300080B500AFC046BD4680BD80B500AFC04660
:104C4000BD4680BD80B500AF00F01AFBC046BD4632
:104C500080BD000080B500AF034B180000F0AAFF34
:104C6000C046BD4680BDC0460402002080B500AFEE
:104C700003F008FAC046BD4680BD80B500AF03F022
:104C80000AFAC046BD4680BD80B500AF01F0ECFD1C
:104C9000C046BD4680BD80B500AF01F01DFEC046D8
:104CA000BD4680BD80B500AF01F000FEC046BD46E8
:104CB00080BD80B500AF01231800BD4680BD80B522
:104CC00082B000AF786039601FF05AFC03001622F2
:104CD0001A6001235B421800BD4602B080BD80B55A
:104CE00082B000AF786001235A427B68110018003F
:104CF000FFF7E5FFC046FDE780B586B000AFF8607E
:104D0000B9607A6000237B610AE000E000BF010027
:104D1000BB685A1CBA60CAB21A707B6901337B61E6
:104D20007A697B689A42F0DB7B681800BD4606B062
:104D300080BD80B586B000AFF860B9607A600023AE
:104D40007B6109E0BB685A1CBA601B781800FFF74A
:104D5000CBF97B6901337B617A697B689A42F1DB2D
:104D60007B681800BD4606B080BD80B582B000AF3C
:104D7000786001235B421800BD4602B080BD80B55B
:104D800082B000AF786039603B68802292015A603F
:104D900000231800BD4602B080BD80B582B000AFD0
:104DA000786001231800BD4602B080BD80B584B094
:104DB00000AFF860B9607A6000231800BD4604B007
:104DC00080BD000080B586B000AF7860144A154BF6
:104DD000D31A7B617B693B61134B1B68002B02D1AB
:104DE000114B124A1A60104B1A687B68D3183A6943
:104DF0009A4207D21FF0C4FB03000C221A60012361
:104E00005B4209E0084B1B68FB60074B1A687B6834
:104E1000D218054B1A60FB681800BD4606B080BD6D
:104E200000000120000C0000DC030020CC2D00203D
:104E300090B583B000AF02003960FB1D1A70FB1DF6
:104E40001B787F2B28D82F4AFB1D1B785BB29B0851
:104E5000C0339B009B58FA1D1278110003220A40B0
:104E6000D200FF2191400A00D2431A4011003B6852
:104E70009B01FF221A40FB1D1B78180003230340EF
:104E8000DB009A401F48FB1D1B785BB29B080A435E
:104E9000C0339B001A5031E01B4AFB1D1B781900E0
:104EA0000F230B40083B9B0806339B00D3180433A9
:104EB0001B68FA1D1278110003220A40D200FF215C
:104EC00091400A00D2431A4011003B689B01FF2227
:104ED0001A40FB1D1B78180003230340DB009A4097
:104EE0000948FB1D1B781C000F232340083B9B082F
:104EF0000A4306339B00C31804331A60C046BD46FC
:104F000003B090BD00E100E000ED00E080B500AF2F
:104F1000BFF34F8FC046044B044ADA60BFF34F8F94
:104F2000C046C046FDE7C04600ED00E00400FA05BB
:104F300090B587B000AF644A9423D358002B0ED1AC
:104F4000624B1B69002B03D1604B9B6B002B06D07F
:104F50005F4B01229A60FBF747F9FFF7D7FF5D4BE4
:104F60005D4A9A605B4B9A68594B1A61574B5A6875
:104F7000564B20210A435A60544B5A68534B4021E8
:104F80000A435A60514B5A68504B80210A435A6079
:104F90004E4B5A684D4B51490A405A60C0464B4BE4
:104FA0005B6904221340042BF9D1484BDB693022A2
:104FB00093431A00454B20210A43DA61434BDA69D7
:104FC000424B47490A40DA61404BDA693F4B802146
:104FD00049000A43DA61434B1B68434A934255D068
:104FE0001F233B610823FB600A23BB6003237B6014
:104FF000354BDB681E2293431900FB685A00324B85
:105000000A43DA60304BDA682F4B01210A43DA6039
:105010002D4BDB68354A134019003B691A062A4BB1
:105020000A43DA60284BDA68274B802109040A43D7
:10503000DA60264A9423D3582D4A1A40BB68990156
:10504000F0239B000B402149134394228B501F4AAD
:105050009423D3581D492022134394228B501B4A7A
:105060009423D358234A1A407B68D902E0239B013A
:105070000B401649134394228B50144A9423D3585F
:1050800012498022D200134394228B501723FB181D
:1050900000221A700DE017243B191B785BB2032124
:1050A0001800FFF7C5FE21007B181A787B18013223
:1050B0001A701723FB181B781F2BECD962B6C04659
:1050C000C046BD4607B090BD0000404800005048B3
:1050D0000400002000ED00E000000410FFFEFFFFD0
:1050E000FFFBFFFFF81E0010CCECBCFCFFFFFFC075
:1050F0003FFCFFFFFFC7FFFF80B582B000AF134B3F
:105100009B685B08DAB2FB1D01210A401A700F4B45
:105110009B681B0ADAB2BB1D07210A401A70FB1DEF
:105120001B78002B07D0BB1D1B78013B084ADA40D7
:10513000084B1A6005E0BB1D1B78074ADA40054B97
:105140001A60C046BD4602B080BDC046000040485F
:105150000048E801E00900200090D003104885468F
:10516000FFF7E6FE002103E00E4B5B58435004318D
:105170000D480E4B42189A42F6D30D4A02E0002326
:10518000136004320B4B9A42F9D30B4A02E000231E
:1051900013600432094B9A42F9D3FEF7BDFFFEE7D4
:1051A00000000120D4840610C8090020440D00200E
:1051B00094010020C8090020C000002094010020B4
:1051C000FEE780B582B000AFFB1D00221A700320FD
:1051D00000F00EF8031E03D0FB1D01221A7001E03F
:1051E000FFF7E8FBFB1D1B781800BD4602B080BD31
:1051F00090B585B000AF78600F23FB1800221A70BD
:105200001D4B1B78002B2CD003F02EFB04001A4BF7
:105210001B781900FA239800FBF71CF8030019000B
:105220002000FBF717F80300180000F020F9031E18
:1052300012D17B68032B0AD8796801235B420022D4
:10524000180000F0EFF80D4B7A681A600DE00F239C
:10525000FB1801221A7008E00F23FB1801221A70B4
:1052600003E00F23FB1801221A700F23FB181B7891
:105270001800BD4605B090BDE8090020E4090020F3
:1052800080B500AF054B1B781A00054B1B68D21880
:10529000034B1A60C046BD4680BDC046E8090020E9
:1052A000E003002080B500AF024B1B681800BD462C
:1052B00080BDC046E003002080B500AF024B1B68F4
:1052C0001800BD4680BDC046E409002080B582B00C
:1052D00000AF0200FB1D1A70FB1D1B787F2B09D845
:1052E000FB1D1B781A001F231A40044B012191401B
:1052F0000A001A60C046BD4602B080BD00E100E071
:1053000090B583B000AF02003960FB1D1A70FB1D21
:105310001B787F2B28D82F4AFB1D1B785BB29B087C
:10532000C0339B009B58FA1D1278110003220A40DB
:10533000D200FF2191400A00D2431A4011003B687D
:105340009B01FF221A40FB1D1B781800032303401A
:10535000DB009A401F48FB1D1B785BB29B080A4389
:10536000C0339B001A5031E01B4AFB1D1B7819000B
:105370000F230B40083B9B0806339B00D3180433D4
:105380001B68FA1D1278110003220A40D200FF2187
:1053900091400A00D2431A4011003B689B01FF2252
:1053A0001A40FB1D1B78180003230340DB009A40C2
:1053B0000948FB1D1B781C000F232340083B9B085A
:1053C0000A4306339B00C31804331A60C046BD4627
:1053D00003B090BD00E100E000ED00E080B582B0D8
:1053E00000AF78607B685A1E80235B049A4201D329
:1053F000012310E00A4B7A68013A5A6001235B42AC
:1054000003211800FFF77CFF054B00229A60044B34
:1054100007221A6000231800BD4602B080BDC046B6
:1054200010E000E080B584B000AFB9607A600F2171
:105430007B18021C1A70BA687B181B785BB21100CB
:105440001800FFF75DFFC046BD4604B080BD80B5C3
:1054500082B000AF0200FB1D1A70FB1D1B785BB20F
:105460001800FFF733FFC046BD4602B080BD80B5CF
:1054700082B000AF78607B681800FFF7AFFF0300D1
:105480001800BD4602B080BDB0B586B000AFF86070
:10549000B9607A601D4B1B78012B01D1022331E0EA
:1054A0001A4B01221A70194B00225A6017257C19D9
:1054B000FA239B00180000F02BF8030023707B19DF
:1054C0001B78002B18D1FB68002B06D17A68BB68CB
:1054D0001100180000F056F805E07A68BB6811006A
:1054E000180000F071F81723FC18FA239B0018002D
:1054F00000F00EF803002370044B00221A701723EB
:10550000FB181B781800BD4606B0B0BDE4030020B0
:1055100080B584B000AF7860FFF7C4FE0300FB6085
:105520000CE07B68013309D0FFF7BCFE0200FB688A
:10553000D31A7A689A4201D803231BE00F4B1B69E8
:1055400001221340012BECD10C4B1B690C221340A0
:105550000C2B0ED1094B9A68094B5B681A43084B18
:105560005A60064B1A69054B0C210A431A61012344
:1055700000E000231800BD4604B080BD00100040CC
:10558000E403002080B582B000AF786039600C4B36
:105590001A690B4B0F210A431A617B68094A94462A
:1055A00063449A08064BD203D20B9A61044B3A68C3
:1055B0001A64034B33221A60C046BD4602B080BD58
:1055C000001000400000FCEF80B584B000AF7860B0
:1055D00039603B68FB60174B1A69164B0F210A4371
:1055E0001A617B68144A944663449A08114BD203AB
:1055F000D20B9A610F4AFB681B681364FB68043383
:10560000FB600C4AFB681B685364FB680433FB6057
:10561000084AFB681B689364FB680433FB60054A17
:10562000FB681B68D364034BCC221A60C046BD469E
:1056300004B080BD001000400000FCEFB0B584B0A5
:1056400000AF78603960274B1B78012B01D1022312
:1056500043E0244B01221A70224B00225A607B68DF
:105660001B68FF2B0BD100F03FF80F23FC18FA2327
:105670009B001800FFF74CFF0300237027E03B68F6
:10568000012252421A607B685B68BB6017E0BB680E
:10569000180000F039F80F257C19FA239B00180038
:1056A000FFF736FF030023707B191B78002B03D014
:1056B0003B68BA681A600AE0BB680133BB607B686C
:1056C0005A687B689B68D318BA689A42DFD3054B47
:1056D00000221A700F23FB181B781800BD4604B077
:1056E000B0BDC046E403002080B500AF054B1A6989
:1056F000044B0F210A431A61024B22221A60C04652
:10570000BD4680BD0010004080B582B000AF78601B
:10571000094B1A69084B0F210A431A617B68DB02A7
:105720009A08054BD203D20B9A61034B11221A60DF
:10573000C046BD4602B080BD0010004080B586B0B6
:1057400000AF7860396000237B6190E13B681B68A3
:1057500001217A6991400A001340FB60FB68002B2D
:1057600000D181E13B685B6803221340012B05D027
:105770003B685B6803221340022B30D17B689B6837
:105780003B617B695B0003229A401300DA433B696B
:1057900013403B613B68DA687B695B009A40130009
:1057A0003A6913433B617B683A699A607B685B683E
:1057B0003B6101227B699A401300DA433B69134045
:1057C0003B613B685B681B0901221A407B699A4078
:1057D00013003A6913433B617B683A695A603B683E
:1057E0005B6803221340032B17D07B68DB683B61A7
:1057F0007B695B0003229A401300DA433B69134044
:105800003B613B689A687B695B009A4013003A6988
:1058100013433B617B683A69DA603B685B6803224B
:105820001340022B23D17B69DA087B68083292008F
:10583000D3583B617B69072213409B000F229A409B
:105840001300DA433B6913403B613B681A697B698B
:1058500007210B409B009A4013003A6913433B61B8
:105860007B69DA087B68083292003969D1507B681D
:105870001B683B617B695B0003229A401300DA439B
:105880003B6913403B613B685B6803221A407B69BC
:105890005B009A4013003A6913433B617B683A69A5
:1058A0001A603B685A68C0239B02134000D1DBE0BA
:1058B0003B685A688023DB02134030D08023DB052D
:1058C000DB683B617A689023DB059A4211D10122A3
:1058D0007B699A401300DB431A003B6913403B612C
:1058E00001227B699A4013001A003B6913433B6114
:1058F00011E001227B699A4013001B04DB431A006C
:105900003B6913403B6101227B699A4013001B04F1
:105910003A6913433B618023DB053A69DA603B68EF
:105920005A6880235B03134030D08023DB051B695A
:105930003B617A689023DB059A4211D101227B6991
:105940009A401300DB431A003B6913403B6101227C
:105950007B699A4013001A003B6913433B6111E0D5
:1059600001227B699A4013001B04DB431A003B6948
:1059700013403B6101227B699A4013001B043A6982
:1059800013433B618023DB053A691A613B685A681F
:105990008023DB03134030D08023DB055B693B6150
:1059A0007A689023DB059A4211D101227B699A40E3
:1059B0001300DB431A003B6913403B6101227B6902
:1059C0009A4013001A003B6913433B6111E0012226
:1059D0007B699A4013001B04DB431A003B691340A8
:1059E0003B6101227B699A4013001B043A6913430F
:1059F0003B618023DB053A695A613B685A68802322
:105A00005B02134030D08023DB059B693B617A68E1
:105A10009023DB059A4211D101227B699A40130041
:105A2000DB431A003B6913403B6101227B699A40CA
:105A300013001A003B6913433B6111E001227B69AB
:105A40009A4013001B04DB431A003B6913403B617F
:105A500001227B699A4013001B043A6913433B619E
:105A60008023DB053A699A617B6901337B613B687E
:105A70001A687B69DA40131E00D067E6C046C0464C
:105A8000BD4606B080BD80B584B000AF78600A0026
:105A9000BB1C1A807B681B69BA1C1288134004D097
:105AA0000F23FB1801221A7003E00F23FB180022BA
:105AB0001A700F23FB181B781800BD4604B080BD78
:105AC00080B582B000AF786008001100BB1C021CDA
:105AD0001A807B1C0A1C1A707B1C1B78002B04D0BC
